:10000000001F0420EF000000350000003100000058
:100010004D7501027A00C8001D000000002302880F
:100020009A4203D0438804309142F7D1181C70479C
:1000300030BFFDE7F44600F005F89E48002101605E
:100040004160E7469C480021C94301604160704718
:1000500091A1A400091E000028432920323032302B
:1000600020526173706265727279205069205472F7
:100070006164696E67204C7464005033D902523356
:10008000FD024C33270354335F034D53DD265334B5
:10009000D1264D434126433429265542B5254454A3
:1000A000850144458B01575637014946A1244558DF
:1000B000F52352457D235250C523464361234358BF
:1000C0003123454345000000475250004352580039
:1000D0005346A80153442802465AA60146535827BE
:1000E00046454C2E4453542E4445AC3D00007348C5
:1000F000016800291FD1FFF79DFF7149714B0A6804
:100100001A4201D00B6093E76F4F704E0FCFB04291
:1001100007D15940401804D1103F386082F3088855
:10012000984702F0E1F920BF216D8908FBD3606593
:1001300040BF6E1C3047614C654F04213961A16D91
:10014000216D4908FBD20BA50020FFF7EDFF012828
:10015000F6D1FFF7E9FFB860FFF7E6FF80F3088804
:10016000FFF7E2FF01A5FFF7DFFFC046002139617D
:1001700080475DE720BF206D4008FBD3A06D0028BD
:10018000DED0704701263743B84700BEFAE7113882
:10019000C07A00BD00B54240002A00F002F8F6D255
:1001A0008E46704600472000692B0000652B00003A
:1001B000312C0000FD2C000027280000272800001B
:1001C000B12D00004D2800004F28000081280000BC
:1001D00083280000D7280000D9280000E728000065
:1001E000E9280000BF29000075290000DD29000072
:1001F00031000000E52900004F2A00000B28000014
:10020000732A0000AF280000B12800009D280000DC
:100210009F28000081350000833500008B350000E9
:100220008D3500003D360000612E0000552E000087
:10023000BD2F0000193100006B3400006B3400004A
:10024000DD320000653500006735000073350000C1
:1002500075350000C3360000C5360000BB3600000F
:10026000BD36000031380000413800001138000070
:1002700031000000453B0000E13B00006F3400000E
:1002800031390000D1360000D3360000CB360000F3
:10029000CD360000C1350000C3350000DB3500005D
:1002A000DD350000633600000A4880F3088801F05D
:1002B0001BFF000000400040A0800040000000D074
:1002C00008400640000000011C800540D3C007B074
:1002D00000ED00E0B0081050334942080A4083089E
:1002E0000B4008408018C018C10840182F4908402A
:1002F000810940182E494843800E70472D4A510805
:10030000514043000B40084040081843830013400D
:10031000104080080343284A1801104013401B096D
:10032000184300BA704725A3010C0CD1810A04D1EF
:10033000010905D1185C1A307047585C10307047BD
:10034000585C16307047880A04D1080904D1585CFB
:100350000A307047185C7047185C0630704727A356
:1003600001040FD0880105D0810107D0090F103199
:10037000585C7047890E585C0A307047800E185CD4
:1003800004307047810106D0880108D0000F10307A
:10039000185C10307047800E185C1A307047890E58
:1003A000585C14307047000049922449C7711CC73B
:1003B00004400004CCCCCCCCF0F0F0F006050404F2
:1003C000030303030202020202020202010101010D
:1003D0000101010101010101010101010000000011
:1003E000000000000000000000000000000000000D
:1003F00000000000000000000000000006000100F6
:1004000002000100030001000200010004000100DD
:1004100002000100030001000200010005000100CC
:1004200002000100030001000200010004000100BD
:100430000200010003000100020001003100E12080
:100440006921491CA91BCD1DFD2200BE024A9368EB
:10045000403B93607047C0467C0A1050024A937D2F
:100460001375024A13607047EC09105000001150D8
:1004700000230160036142604B78C3608360704772
:100480000449836801221A741B681B78CB5A1343F2
:10049000184700003C040000036870B5191E02D024
:1004A00099780F23194000240025124ACB009A188E
:1004B000146055600400104E2834328B82822578F7
:1004C0004024002D00D024191419348300290ED0A3
:1004D0005421002D00D020314906293052180178CE
:1004E00006481B18002903D01A6000225A6070BD0C
:1004F0001960FBE780001050EC091050000010500C
:1005000030B5451CC9B2E97728352A70C38203008B
:1005100003AC247828331C70012349005A40891801
:10052000C31CD97730BD00BE1300F0B506000C0027
:10053000150085B00833016003932378E4186378CD
:10054000052BFAD1637921791B020B430F27012177
:10055000A2780091174039002868D209FFF7D0FF30
:1005600008CD054ABF001C60BB50039BAB42E4D1E1
:10057000300005B0F0BDC046080A1050431CDB7FB8
:10058000293002780349DB005818002A01D0024ABA
:1005900098187047840010508000105070B5060005
:1005A000837F04001836002B1FD1C38A43770300D2
:1005B00029331978431D002900D1831DDD7FA38ACB
:1005C0002A00501E82410A4892011B189B18A36101
:1005D0000023994206D12000FFF7D0FF6D00451996
:1005E0002B88DBB223770123A377300070BDC04690
:1005F00000001050002270B5C31DDA7701330400EB
:10060000D87F90422FD18023DB0019432300293368
:100610001B78002B02D080231B021943A21CD37F1E
:1006200001261D00681E85417340D37720006D03AD
:100630000D43FFF7A3FF631DDA7FADB2B240801810
:1006400000220580211DA277CA7F013ACA77A168DE
:1006500028348A68013A8A602278002A02D0DA7F38
:100660005640DE7770BDA02040010143DA77CDE728
:1006700070B50400A368002B15D09B68002B12D026
:10068000261DF57F002D0ED0E31DDB7F002B0AD148
:10069000230029331B78002B06D02000FFF7F0FE43
:1006A000F37FAB42E6D170BD2000E18AFFF7A2FFE5
:1006B000E0E770B50D000400110028001A00FFF7F4
:1006C000D7FE0023E3600133A5602000AB74FFF781
:1006D000CFFF70BD10B50300024A03490348FFF77E
:1006E000E8FF10BD593F0000240A1050C00D105003
:1006F0004168836810B58B4203D000230A68FFF776
:10070000D8FF10BD030010B53333DB7F2C30002B36
:1007100001D1FFF7EDFF10BD030070B529331B7841
:1007200004000D001600002B03D0FFF737FF002355
:100730000371330029002000014AFFF7BAFF70BDA2
:10074000593F000010B5002202490348FFF7E4FFBB
:1007500010BDC046C4091050680F105010B50022DB
:1007600002490348FFF7D8FF10BDC046D809105012
:10077000940F105010B5034B034A04490448FFF787
:1007800098FF10BD5D070000593F0000C4091050DC
:10079000680F105010B5C31DDA7F8168002A05D19B
:1007A000CB68002B0AD10B7C002B07D1012400233E
:1007B000CC7483609A4202D0CB608B6010BD4B68D2
:1007C000002B01D09847F9E7C368002BF6D083606F
:1007D000C2609C74FFF74CFFF0E700BE70B5C61D09
:1007E000F37F04000D00002B1AD1431CDB7F002B8C
:1007F00007D1030029331B785A4253410A4A013377
:1008000093662000FFF7BAFE802302681B011343A2
:100810000360F5772369002B01D02000984770BD55
:100820008B42FCD2F177FAE70020115070B5002816
:100830000ED0184B8000C458211DCB7F0133CB77DD
:10084000A568002D09D102212000FFF7C7FF70BD68
:10085000114C0029F0D1114CEEE72B7C002B02D07B
:1008600001236B74F3E7A31DDA7723331B78002B86
:1008700002D0AB68002B02D02000FFF701FEEB7C1A
:10088000002BE4D1EB682000013BEB60FFF782FF17
:10089000DDE7C046080A1050680F1050940F105042
:1008A000002370B5856804002B74FFF773FFEB7CA1
:1008B000002B1BD1260029363378002B03D02000D3
:1008C000217FFFF797FE0023A3776A7C9A420ED020
:1008D0006B74221DD37F013BD3770122A31DDB7FE5
:1008E00001343178E07F5A40FFF7A0FF70BD20004F
:1008F000FFF7BEFEFAE700BEF8B50400FFF73EFEC4
:1009000025000268194B28351A421DD02B78002B80
:1009100003D0231DDB7F012B04D10123A21CD17F37
:100920004B40D377E31CDA7F012393401049114AEF
:100930001148124E53660B66776E3B4202D1013866
:10094000002811D1136653662000FFF717FE2B789D
:100950000022591E8B41211D01330260CB770123F8
:10096000A2840834E377F8BD0B66E5E700040004D1
:100970000020115000301150A086010000001150DD
:1009800070B5084D2800FFF7B7FF074C2000FFF7B0
:10099000B3FF28000121FFF721FF01212000FFF70D
:1009A0001DFF70BD680F1050940F105070B50025DA
:1009B00085600E000400FFF79FFFAE4201D0A21C2D
:1009C000D577A577E21DD17F002905D0D57723699A
:1009D000002B01D020009847074B5B7D002B09D0EE
:1009E0006168002906D0A368002B03D120000A68A3
:1009F000FFF75FFE70BDC046EC09105010B51E4BEE
:100A00001E4C1C6080241E4BE4051C60E024E404A2
:100A10001C601C4B00282CD0012420431A4CDC61A4
:100A2000DC69644244401C6259629862FA21890080
:100A30004A435A60154A1168022211420BD11449E7
:100A4000144809684A4003210A4013490A600422F5
:100A5000816B1142FCD00C22DA62104BF532FF326E
:100A60001A6080220E4BD2051A6001220D4B1A70BB
:100A700010BDD861DAE7C04608000140FCFF010064
:100A800000B0054000800540D3C007B000C006405C
:100A90003080004000800040309000402CA0054095
:100AA00000A00540B40E105070B504004518002099
:100AB000AC4201D2002800D070BD044B20001B685E
:100AC000DB68984780235B01E418F1E7BC0D105008
:100AD000E0221206811884220300D20201209142F2
:100AE00007D9EB2212069B1880220020D2019A42DD
:100AF0004041704730B5851D0C0FE2B2130037330B
:100B0000092C00D8073B037001300901A842F3D13A
:100B100030BD00BE002210B5054B06485A721B7A44
:100B20007F2B00D80448054A0549FFF7F5FD10BDA5
:100B3000B80A1050580E1050240E10505D0B0000D3
:100B4000B0081050044B026ADB6C10B59A4201D118
:100B5000FFF7E0FF10BDC046C80A105010B50448AA
:100B6000C31DDB7F002B01D1FFF7C2FD10BDC046C6
:100B7000580E105003000448032B03D8034A013BCE
:100B80009B0098587047C046B73D0000E83E000003
:100B9000024B000218601B687047C0460C80014081
:100BA00070B5040002200D00FFF7F2FFC0220423FD
:100BB000210629435205080E013B10660902002B4D
:100BC000F9D170BD034B044A186001009368994342
:100BD000FBD1704700F0004000C00040F7B529305D
:100BE00003787A4C002B0AD001236360EFF3108561
:100BF00072B62000A368984785F31088F7BD744B40
:100C000007201B78002B09D1631DDE7FDB7F5BB2E1
:100C1000002B25DAE568EB0702D505206060E5E7E3
:100C20002800FFF755FF002801D10420F6E7EB2349
:100C300080271B06EB18FF01BB42F6D928001C30A9
:100C4000FFF746FF0028F0D0624BEB18BB42ECD90F
:100C50001C222800604901F0F3FC604BE2681A6036
:100C6000F3060ED5A31DD97F0A00531E9A415C4B93
:100C7000D2B229331A70022903D10122594B07330A
:100C8000DA77F30718D473061DD40A231E420CD05A
:100C9000E31DDA7F23000833D97F534B002903D0AB
:100CA000197806209142B9D11A70B30710D40C23D9
:100CB0001E4225D10020B1E7484B1B689B6898472E
:100CC0000028E0D0AAE70123E26813439847DCE755
:100CD00020690305A1D161690B059ED1F025802211
:100CE0002D064319520593429FD843185B1993422E
:100CF0009BD83A4B1B681B6998470028D7D08DE7D3
:100D0000E5682800FFF7E4FE002805D0E369E8184D
:100D1000FFF7DEFE071E1ED133070AD480229201A0
:100D2000954206D2E369EB18934200D37DE7012791
:100D300011E0F021802209066B185205934200D978
:100D400073E7E369EB185B18934200D96DE7EFB2E4
:100D5000002F00D061E7330718D5204BA1699C46CE
:100D60001B68002F23D0E2690195AB4200D90193A3
:100D70001C33A818834200D21800019B834202D280
:100D80006046154B0360280001F05AFC730707D535
:100D9000E368A069002F10D01900E26901F050FC4F
:100DA000B30687D50D4B1B685B68984736E728006C
:100DB0005B6998470028E9D030E7084A01001268CB
:100DC0001800926990470028EAD027E78C0D105050
:100DD000B40E10501C0000EBCC3E0000BC0D1050B7
:100DE000C00F10507C0A10501C0A1050F8B5466A0B
:100DF0000400330029331B783000002B23D0FFF789
:100E0000CDFB6369E2691F000500A069511E4037F0
:100E100040221940874200D9C21A2A71236A2868E1
:100E2000591801F00DFC2B7962692000D318636119
:100E3000A36A1B689847064B30001A68054B1A6076
:100E4000FFF72EFDF8BDFFF7A9FB0500EBE7C04655
:100E5000640F1050180000D070B50C4C036AE26C9F
:100E60000500934211D14368094E7360002B05D0F1
:100E70000221606AFFF7B2FC00237372EB69A26B78
:100E80002000D318A363FFF7B1FF70BDC80A10504C
:100E9000B80A105070B5040001260A4D68750A4B57
:100EA000B200D058002802D00121FFF77FFD0136A3
:100EB000052EF4D1601E84416B682800E1B298478A
:100EC00070BDC046EC091050080A105010B5002043
:100ED000FFF7E0FF0023054A1375054A136001225E
:100EE000044B52429A651A6510BDC046EC09105079
:100EF000000011500030115020220E4B10B51A6026
:100F00000D4B1868D0231B0658615862FFF727FA6B
:100F100040220A4BC3189B0019680A4380211A60BB
:100F20001A688A431A60064BC0180523C000436044
:100F300010BDC04600F00040640F1050017000105A
:100F40000028000810B50A00002101F0C7FB10BD01
:100F5000114B70B51A78114C002A07D1104A11496B
:100F600022631160104A226101221A700F4D28215C
:100F70002800FFF7E7FF70236B73663B2B75002596
:100F80000B4B290020001D61FFF710FD20002900F8
:100F90002C30FFF70BFD70BD200E1050C00D10500F
:100FA000380A1050DA3D00004D1400007C0A105041
:100FB0003C0D105060220B7810B51A400024202AF6
:100FC00014D15BB24A78A34212DAFE2A0ED14B88C2
:100FD000A3420BD1CB88A34208D01348FFF7DEFA17
:100FE00003681C7001340471FFF7C4FB200010BDBE
:100FF000FF2AFBD14B88002BF8D1CA881C00002A9D
:10100000F4D10A4BDA1DD17F032901D10139D177FF
:1010100052331A78032A01D1013A1A70FFF798FF68
:101020000124FFF78FFBE1E7680F1050C00D10504F
:10103000F7B50D008021100089001400FFF782FF32
:10104000002D20D12000C3300B224F49FF3001F08A
:10105000F7FAFF2355225B00E2544C4B9218E254FE
:101060004B4B1A79002A04D14A4A926A1A6001222B
:101070001A7120001B68B9300193FF30042201A9C6
:1010800001F0DEFA23E0012D11D1414B1A79002A3B
:1010900003D1404A926A1D711A601B6840222000E9
:1010A0003D49019301F0CCFA20002730E6E7812288
:1010B000AB1E520093420CD2802B00D9813B002BF7
:1010C00005D1083B238007336380A380E3800020A1
:1010D000FEBD6B1FFF3B1F2B39D8002BF7D12E49CC
:1010E0000B222B31200001F0ABFA2823E3722300FE
:1010F00064222000294E2A4D2D331A702949593A6D
:10110000E6852586E6862587203001F099FA2300BA
:1011100021212B33197002236387EF33E363270008
:10112000230064224E3340377A731F491E805D804E
:101130001E815D81593A380001F082FA2300212195
:1011400003225A33F9721A803E23E365BFE7253D37
:10115000FF3D6B07BBD1ED0810D122009F21134842
:1011600001F04FFA2000124D0C222900623001F0EC
:1011700067FA20000C222900C23081E7012DA6D198
:101180003E2220000B497BE7F83D0000FF010000F4
:10119000B40D1050004005406C3E00009982FFFFE6
:1011A00025390000AC3D0000B83D0000FA3F0000CA
:1011B000B50E1050F43E0000F0B5854B16001268D5
:1011C00085B003909A4202D0002005B0F0BD814B5B
:1011D00072689A42F8D1FE2252007F4BB2589A426E
:1011E000F2D1B3689A04EFD57C4AF1699142EBD110
:1011F00001221D0015401342E6D1802332695B00B5
:101200009A42E1D1F7683800FFF762FC002804D069
:101210003800FF30FFF75CFC0500B369704C002B11
:1012200009D0F0221206BA180192002D06D1110041
:101230006C4A914207D900202061C6E7019A11004B
:10124000684A914202D8FFB2002FF4D1664A29328F
:101250001278002AEFD101322A400292226908272F
:10126000934235D020005021FFF76CFE2300029AF4
:101270004C335E481A70002D01D1A8204005694208
:101280006941A0235A4D4942DB002940C9186160D9
:10129000C9082060FFF756FE019B1A00514B9A4285
:1012A00006D85448544B5549A060E360FFF74AFE06
:1012B000B3696268934200D986E72361012300275E
:1012C0005B42019AE361474BA76193427F41083734
:1012D00023004C331B78029A9342ACD17369B269F4
:1012E0009342A8D2200028212430FFF72BFE2200B1
:1012F000039B4832716963626361F3681770404A07
:1013000001209446E26280225200226422004A3286
:1013100010701F220A40904025684A0992002162FD
:101320002363AA1815682036E6630190054200D0B1
:101330004AE78025E669AD05B3420BD2AB42BF4117
:101340007F423800AE42BF417F42029707000298B9
:10135000874203D0AE4202D2AB4200D3E361250004
:101360004C352D78002D1AD10E02C905C90E013554
:101370008D40710CA668890071180E682E420ED13E
:101380001B0B1B03636380235B01A3630B681D437B
:101390000D602100022348310D782B430B70A369A7
:1013A00001980133A36113682100184363460E4D71
:1013B00010602835E362282224310B482B7801F095
:1013C0003FF90120287040BF4B342070FDE6C04635
:1013D0005546320A57515D9E306FB10A56FF8BE475
:1013E0003C0D105001FFFF0FC00F1050C40E1050E5
:1013F000E0DC01003C3C00151E1E0000C3030000A1
:101400003116000070B50D00FFF7C8F80400290080
:101410000068FFF797FD2068257170BD002210B5A8
:10142000074C0D21A31D0748DA77FFF7EBFF0D22CC
:10143000210001F005F90448FFF74CF910BDC04642
:101440007C0A1050C00D10500507000010B5C31DD8
:10145000DB7F002B09D1054B984206D1044B0633A4
:10146000DB7F002B01D0FFF7D9FF10BDC00D10505E
:101470007C0A105010B50C4A531DD97F012907D1A1
:1014800080235B00094893840131FFF7A7F910BD61
:10149000022905D100220548DA772C30FFF79EF9A2
:1014A000FFF7BCFFF3E7C0467C0A1050C00D105098
:1014B000002370B5114C651DEB772362057B01336A
:1014C0007F2D00D801339A4207D0621DD3770223C3
:1014D0002373FFF7CFFF00200FE083688B4208D013
:1014E000601DC2778B4201D2022222738B4200D947
:1014F0000B0001202362002BEBD070BD7C0A105042
:10150000F8B5827C437C12021A43C37C0F001B0493
:101510001A43037DC17D1B061343827D09021143DB
:10152000204E49BA32001BBA89B2012F00D02C32AA
:101530001D4C490262623A00E362FFF7B9FF0028DE
:1015400029D01A4B1D6A3F2D28D9194A200013684B
:101550001849013313603F239D43174BA561A362D4
:10156000164B174A236280239B00E36100236361CB
:10157000FEF77EFF3F35A368AD095B19A360E36802
:101580005D19E560012F07D100233000B460F360DE
:10159000A774FFF76DF8F8BDB463FCE7FFF76AFFC7
:1015A000F9E7C046C00D10504C0A10507C0A10508C
:1015B000200A1050173E0000E43D00001C0B1050A4
:1015C0007514000070B505000C48FEF7E7FFA96828
:1015D00003790400994200D9190001222800FFF77D
:1015E00067FF002809D0064A0648136A23719168EC
:1015F000DBB2CB1A9360FFF76DF870BDC00D1050D1
:101600007C0A1050751400000021084B10B55A1DBB
:10161000D17782688A4206D0017B01227F2900D8D7
:1016200092180533DA77FFF725FF10BD7C0A1050BA
:101630001A4B0268596910B504008A4211D14068FA
:1016400000280ED19A6919698A420AD11A004C32CF
:101650001278002A00D0D869FA2211499200FFF7C7
:10166000CDF90ACCEFF3108472B60E4A126891429B
:1016700011D1002B0CD001220B4B1A730632DA73F6
:1016800019325A761E3A9A760533DA77FFF7F2FE68
:101690000648FFF7ABFB84F3108810BD3C0D1050DB
:1016A00000200420200A10507C0A10504C0A1050D0
:1016B000002110B50F48FFF779F90F480021FFF717
:1016C00075F90E48437A002B03D080220C4B92020E
:1016D0001A601021FFF736FC0A4B0022190029334B
:1016E00028310A701A70084B1900293328310A7002
:1016F0001A7010BD580E1050240E1050B80A105019
:101700001CA00140C00F1050840E10508022054BC9
:10171000920210B51A60002903D0FFF719FCFFF7F9
:10172000C7FF10BD1CA0014060220B78002010B53F
:101730001A40402A13D15BB24A78834210DA422A17
:101740000DD1CC88102C0AD121000948FFF75AFE90
:101750002200084900F074FFFFF70CF8012010BDCB
:10176000412AFCD1FFF7A4FFFEF7ECFFF6E7C046E5
:10177000680F1050B80A1050F8B5184EC024150064
:10178000B44664051E0016432E4303D10320FFF721
:10179000FFF9F8BD276A666A002A15D0BF190D2F18
:1017A00012D8071E01D0077801302766013A002EB3
:1017B000E8D0266E002B01D0013BE3E7002901D0E1
:1017C0000E700131013DDDE7002EF2D16646C027E3
:1017D0003668BF023E42D5D0D8E7C0461C800140E3
:1017E00010B50C0001000320FFF7DAF98022042372
:1017F000210000205200FFF7BFFF10BDF02310B5FD
:101800001B06C018FFF7ECFF002010BD10B502202A
:10181000FFF7BEF9C02306225B051A6600220123EA
:1018200011001000FFF7A8FF10BD00BE73B5C02661
:10183000012476050220FFF7ABF9052333666B46DA
:10184000DD1D2200230029000020FFF795FF2B78E3
:10185000234205D0034B1A68C0239B021A42E9D0E9
:1018600073BDC0461C80014070B505000C00FFF739
:10187000CDFF29002000FFF793F900220423110077
:101880001000FFF779FFFFF7D1FF70BDF02310B50F
:101890001B06C0182021FFF7E7FF002010BD70B520
:1018A00005000C00FFF7B2FF29000220FFF778F9CE
:1018B00080220423002120005200FFF75DFFFFF784
:1018C000B5FF70BDF02310B51B06C018FFF7E7FF8A
:1018D000002010BD8022824BF0B552041A60814A6C
:1018E000060012680D0085B0920739D403207E4AA5
:1018F0007E497F4C11607F4A10607F4A7F48A26713
:10190000FF3AFF3A0260606C1042FCD08022520025
:101910002264A2657A4A116051680029FCDA8020AD
:1019200040011860FFF74EF90122764B21211A6021
:1019300063329A60AA22D202DA60734A116019688F
:101940000029FCDA082313600023E36382230122C9
:101950001B0163656D4B1A600223626C1A42FCD056
:1019600080204004FFF72EF90C22694B8021DA62B7
:10197000684BF532FF321A600122674B67481A60E4
:101980004901FFF7DFFA664B1E60EB439B0700D16E
:101990000025002E01D0FFF7AFFA624C624B200009
:1019A0001968FFF7A7F8614BA01D1968FFF7A2F8A7
:1019B00001265F4C002D1FD05E4F202221003800F1
:1019C00000F03EFE2023BB7000230126FB702B009D
:1019D00033400393354207D02100380017222031CD
:1019E000093000F02DFE002601233B710023FB721D
:1019F000039B3C00002B08D121004F4F4F4A380079
:101A00000931FEF791FD4E4B7B60AB070FD41721D8
:101A100071434C4E09314C4A30006118FEF784FD89
:101A20004A4B4B4A1A604B4A53604B4B73604B4BCB
:101A3000012D00D104334A4D4A4AEC6000244A4F3C
:101A40002B614A4B21002A60AB60012240230094A5
:101A50003800FEF755FD464E220021004023009439
:101A60003000FEF74DFD802321005B0038002B8302
:101A7000FEF712FD802321005B0030002B83FEF770
:101A80000BFDC0235B002B8301343A4BA200D058DE
:101A9000002802D00021FEF7FFFC0134052CF4D110
:101AA000354B00206B60354B354A1C001900043360
:101AB00008609342FAD1092363670333A3670B3BA2
:101AC0002364FFF703FA2F4B2F4AE3642F4B1A606E
:101AD00020232F4A13602F4A1360FEF7E5FBC04610
:101AE00000E0004000C006400000064000B0FA00E0
:101AF0000080004030B00040FF0100003CB00040DA
:101B0000004002400080024004B002403CA000407F
:101B1000008005402CA0054000300014000010504B
:101B2000640F1050B50E10504000004050000000EF
:101B3000193E00001C0D1050180E1050DC3D000026
:101B4000B50F0000500E1050383F0000A40A10508E
:101B5000EC3D0000580E105029170000643E0000B4
:101B6000EC091050503E0000680F1050750B00003B
:101B7000940F1050080A10500D170000000011506B
:101B80008400115000000120F0130100900011505A
:101B900080E200E000E100E0024B10B5D86819696E
:101BA000FFF798FE00800540244BF7B51A68244BD8
:101BB00084681A600200E5692932636912786E1E32
:101BC0001E400192002A15D0002E03D02000FFF7FE
:101BD0000DF9F7BDA2695919914200D9D51A002D06
:101BE000F4D0A36A174A1B792800D35A98470028D3
:101BF000ECD0EEE7FEF7D2FC6169A2694031070044
:101C0000E369914212D31500591E0D400A4200D1DA
:101C10001D00002E03D1E169206AFFF793F9236AC2
:101C20003A793968981900F00BFDD8E71D003300A8
:101C30004033AB42EDD2019DEBE7C046640F10503C
:101C4000140000D03C040000F8B50600FEF7A6FC26
:101C500003791F2B00D0A0E00568554B2A689A42F3
:101C600000D09AE06B7B002B00D096E0297B7F337D
:101C70000A001A40194200D08FE0AB7B013B0F2BCA
:101C800000D98AE04B4C4C4B23606B686360AB68B7
:101C9000A360EB7B032B02D0E2736276A27600276F
:101CA0002773232B47D018D81A2B3BD00DD8032BE2
:101CB00051D0122B25D0BB425AD0012323730433B9
:101CC000E3731B33637600235CE01B2B5CD01E2B7D
:101CD000F3D12800FFF798FC0AE02A2B29D00BD873
:101CE000252B31D00121282BE7D12800FFF708FC54
:101CF0003000FEF7D5FDF8BD2F2BEAD0352BE8D00C
:101D0000DBE724212D48FFF77DFB192104002C4837
:101D10002200401800F075FC802363702800FFF754
:101D200051FCE5E704212548FFF76CFB0323036022
:101D3000F4E70221D9E70C212048FFF763FB0C22CE
:101D4000204900F07DFCE9E708211C48FFF75AFB19
:101D500008221D49F5E712211848FFF753FB21001F
:101D600012220D3100F06CFCE7736776A776D5E799
:101D7000E21DD27F002AACD0012222739218E273B6
:101D800038326276A376A4E70322EB7C1340022B61
:101D90009FD10734013BE3779BE7084C03212000E8
:101DA000FEF71CFD200003212C30FEF717FD9FE7F6
:101DB000555342437C0A105055534253C00D1050A6
:101DC000403F00000B3E0000033E000010B5094BF1
:101DD000094C5A6A29321278002A00D1074C084A65
:101DE0001168481CD96A10604A1CDA62054AA0478B
:101DF00010BDC0464C0A105031100000B91100004F
:101E0000200A10501C0B1050F7B5AA4B1B68019309
:101E1000DB0300D488E0BFF35F8FA74F00213800B9
:101E20000124FEF7C3FDA54E00213000FEF7BEFDE4
:101E30001F21B31CDC77A24ABB1CDC77137815008A
:101E40001940A14200D1A2E0022900D1CAE0002934
:101E500057D160310B4254D15BB2002B4CDA3800C1
:101E6000FEF79CFB6B7807000668062B0DD0082B4D
:101E70003ED0002B45D133802419EB88A34200DDEE
:101E800023003B71FEF776FC4AE06888030A022BC8
:101E90000DD0032B16D0012B33D18A4B1224196895
:101EA0000029EAD02200300000F0CAFBE5E7C0B20A
:101EB000002826D1834BD968CC788B7824021C4328
:101EC000DBD0EFE7C0B200280FD07E4B02249B6826
:101ED00098470130431E1B78002B03D10333347025
:101EE0007370CAE733530234F3E704247649D9E721
:101EF000744B5B7D3370C0E75378052B04D0092BFE
:101F000038D0FEF73DFD0BE00223D3565188002B5D
:101F1000F7DD6C4B380099756C4A6D49FEF7FCFB98
:101F200080226C4B92021A65019BDB060AD50026C3
:101F30000124694FBD6D002D04D00A2E00D082E02F
:101F4000644B9D65019BDB0405D5FEF7BFFF802236
:101F5000604B12031A65F823019A9B001A4208D0BD
:101F60005D4B1B6D002B00DB7EE08022594B12067F
:101F70001A65F7BD9078002804D0524BDB685B7976
:101F80008342BED1FEF786FFFEF7DCFBC8E79388ED
:101F90004C4A517D0029B4D0FE210B42B1D11269C7
:101FA000DBB29B0098580028ABD04368002B14D1BB
:101FB00060222B781342A4D1AA88120AA1D15BB265
:101FC000002B9EDA6C78002C9BD13800FEF7E6FAE5
:101FD00003681C600223037154E729009847002816
:101FE0009ED1E5E79288002A41D0802A60D0354909
:101FF000497D002900D184E73849A000405806688F
:10200000B678B24234D00134052CF6D179E769783C
:1020100001290AD0032900D073E76B88002B00D078
:102020006FE70221FEF7DAFBAEE76B88002B00D0EA
:1020300067E7C21DD27F022A02D8FEF7B7FCA3E7EA
:102040000230C377A0E72C420BD00121FA6D214B5F
:1020500022409C657008531E9A41B143FEF7E6FB8F
:10206000A5436400013666E7FEF730FF81E73000E4
:102070006022134200D044E75BB2002BC7DA6B78D2
:10208000002B00D03DE76B88002B00D039E7EC88AF
:10209000022C00D035E701250730C37F38009D4270
:1020A000AD41FEF77BFA03686D421D600471E9E6FD
:1020B0003800DDE798001150680F1050940F105051
:1020C00000001050EC091050323F00005D04000089
:1020D000C40910500030115000001150080A10506F
:1020E00010B5FEF7DDFB10BDF8B51A4A1A4B1A60A1
:1020F000EFF3108572B6BFF35F8F184C27002837B7
:102100003B78DEB2002B13D185F31088EFF31085F6
:1021100072B6BFF35F8F124C270028373B78002B35
:1021200013D0282221000F4800F08AFA3E7006E002
:10213000282221000B4800F083FA00233B7085F32E
:1021400010882000FEF74AFDD2E785F3108820BFF3
:10215000CEE7C046CC3E0000BC0D1050C00F105062
:10216000840E10508C0D1050F7B50190FEF716FA42
:102170000379202B00D09EE00668534B32689A42C8
:1021800000D098E0514C282120002C30FEF7DAFED8
:102190004F4A1368013B13607268E362E264337A6A
:1021A00000934C4B00991A6000225A7201325A6017
:1021B00032691972E263A263944622007169513256
:1021C0002164307C10707F2200980240501E082845
:1021D00000D970E0032042433F48777A855CAF42E4
:1021E00061D1002580185D60437840780D0040B2D1
:1021F000002800DB1D00F368AB4256D1364B9A181D
:10220000009B9778022B09D16046B269FEF7F6FB76
:10221000FEF780FC0198FEF743FBF7BD002F47D087
:10222000230050331F7023000222012652331A70FC
:10223000284B5E72002D28D0284B294A6364236204
:1022400080235B00E3610023A2626361254AA561EC
:1022500020002549FEF70CF93F35A368AD095B194D
:10226000A360E3683A005D190823E5601A401F4245
:1022700003D01E4B6362DC60CCE71D48A67460622D
:102280008460C260FEF7F4F9C4E71A482100050033
:10229000194B2835636328222C312B7800F0D0F9B4
:1022A0002E7040BFB6E7022204E0009B022BABD0A9
:1022B0000322084B5A6002210D48FEF78FFA0221D3
:1022C0000A48FEF78BFAA5E70BD11F43C80A105046
:1022D000B00E1050B80A1050AC3E0000C4081050A8
:1022E000F03D0000150B0000173E0000580E105086
:1022F000240E1050840E1050450B000070B5094C90
:10230000094BA06409482100050063632835282291
:102310002C312B7800F094F90120287040BF533401
:10232000207070BDC80A1050590E0000840E105065
:10233000C02300225B059A60044A05491A601A000E
:10234000F432116001229A607047C04600031F00FA
:102350001802000310B5FFF7EBFF002010BD00BE10
:10236000A022012310B5520553605268024A002092
:102370001360FEF70DFC10BD00200014F8B504003A
:1023800015001F004618B44205D2C0220C4B920221
:102390001B68134200D0F8BD6B1E1C4208D1331BD2
:1023A000AB4205D320003900FFF75EFA6419EAE773
:1023B00020002021FFF758FA80235B01E418E2E7B0
:1023C0001C800140F8B505000F0004008618791B39
:1023D0000919B44205D2C022054B92021B68134270
:1023E00000D0F8BD20000134FFF759FAFF34EEE7C2
:1023F0001C8001400123F0B585B05B4203AF3B80F8
:10240000C02300225B059A609A6A9A6C06225A6180
:10241000E022D2021A6001221F4C1A619A602668DB
:102420008C23320084259A4303201543FEF7B0FB2A
:1024300002230193802325601B016560A560E56090
:10244000013BFDD10023042219001800FFF794F985
:102450000C2308219D4302200D43FEF799FB0199AF
:10246000012916D10C2226606660964333000826A7
:102470001E43A6600220E660FEF78AFB00230222CC
:1024800019003800FFF778F90022044B1A6005B0F4
:10249000F0BD0123CDE7C046080002400C8001409A
:1024A0009020074B800010B51860FEF78BFB0022D0
:1024B000044B5A60DA605A61DA615A62DA6210BD1E
:1024C00000E000400080014010B5FFF7E9FFFFF792
:1024D00091FF044B1B68002B01D0FEF70DFD00207F
:1024E00010BDC046640F1050F8B52B4A2B4B13603B
:1024F0002B4A136002222B4B1B68134208D0052184
:10250000294B1960D0231B061A631A6400221A642F
:10251000C8235B00013BFDD1D02009240022042503
:10252000012100062B00013BFDD18368013C5B08C3
:102530000B40D218002CF5D1042A23D9C026FFF76E
:10254000AFFFFFF757FF76050027C022B76033685B
:10255000164D9343E2B21343336001232900B36065
:102560003800FFF73DF90122FC212800524200F01B
:1025700033F80F4B1B68984208D0802340349B01EE
:102580009C42E1D100210800FFF7A4F9FFF7E8FE23
:102590000135BE462847C04600E00040400220000A
:1025A00000F0004000C006400C800140001F0420E5
:1025B000FC1F0420054B10B50A22D860196104489D
:1025C0000449FEF71BFA30BFFDE7C0460080054016
:1025D000991B00000020042030B509185D4D0CE067
:1025E000047813BA5C4024060823640000D36C40CE
:1025F000013BFAD11202624001308842F0DB101C2C
:1026000030BD30B54942435C01321C0AAD4105D1B1
:102610005DB20131445CAA41141B635D5355013521
:10262000FBD10131EFD130BD8446082A3AD370B4D2
:102630001CE0013A8B5C8354FBD160467047C04676
:102640008446082A2ED3431A9B07F2D170B4091A84
:10265000051C430802D3445C04700130830802D394
:10266000445A0480023009182D1A5219103A03D323
:1026700078C978C0103AFBD2520701D318C918C0E4
:10268000520001D308C908C009D0520004D30B88F6
:10269000038004D00231023001D00B78037070BC8B
:1026A0006046704709A392009B1A01331847C04641
:1026B0008B7983714B7943710B790371CB78C3703C
:1026C0008B7883704B7843700B780370604670474B
:1026D0008446C9B20B02194311E0C0468446082A59
:1026E0002AD3430801D301700130C9B20B02194348
:1026F000830801D30180023063461B1AD2180BBA3B
:1027000019430B1C103A07D330B40C1C0D1CC046E7
:102710003AC0103AFCD230BC520700D30AC0520073
:1027200000D302C006D0520002D3018002D0023092
:1027300000D001706046704705A39B1A9B1A0133B5
:102740001847817141710171C170817041700170D0
:1027500060467047B71DC10405B508461A460ABD54
:10276000C20D4002400A0124E4052043FF2AD2B2F0
:1027700000D94042013AFE2A01D27E3A7047002831
:10278000204600D540427E3A920080327047C40F06
:10279000E40704D5002D00D00130404203D4013AB3
:1027A000001812D0FBD5813201D1803005D28030A3
:1027B00003D2002D0FD04000013AFE2A06DA013282
:1027C00007DD400AD205104320437047FF20C005B3
:1027D000FAE7002070470506EDD1400A8002EBE7DA
:1027E00083B20C14634304148DB26C431B1984B27E
:1027F0006C432504240C1B19001409144843C0021F
:10280000D9060D435911401870474200120E01D0ED
:10281000FF2A01D1C00DC0054A00120E01D0FF2AC7
:1028200001D1C90DC9050122414009D4414000D55B
:102830005242884202DC00DB00225242101E7047E6
:1028400001434918F8D00028F8DAF6E7002110B55E
:10285000FFF786FF1300823310D40A44173A07DBD0
:10286000072A19DDC117C9430120C007484010BD20
:102870005242202A00DB2022104110BD002010BD52
:10288000002110B5FFF76CFF0A440100EED4173A9F
:10289000EEDBC143082AE9DC904010BD002230B5D0
:1028A000002906D5CD0705434808013A10E000226B
:1028B00030B505000D4315D0CD170C16AC4205D12F
:1028C000C901440E2143C0010732F6E705000800A4
:1028D00052423D3204E0002130B51D22521A00253B
:1028E000FFF755FF30BD002130B50028F5DA1E2274
:1028F000521AC5074008F3E70025A4460DE0002959
:1029000002DC05E0002A03DA891B7F42121901E08C
:102910008919121B64466743C01B10CB640800D2A0
:10292000013506462E410F462F4164087047C0B559
:10293000FFF7E2FFFFF7E6FFFCD386138F13D210F9
:10294000564357436446674336133F13C01B8919E8
:10295000C0BDC0B5FFF7D0FFFFF7D1FFFCD3002902
:1029600002DC8919121B01E0891B12197610641010
:10297000F5D1EDE730B51821FFF769FF5D4C24096B
:10298000001BFDDA0019FDD48200650053480021C8
:10299000A24202DB521B4042FAE7D20055A30124B7
:1029A000FFF7C5FF093100220023002500F00CF8D5
:1029B000FFF7EDFEFFF7D0FE00F006F88FE700B559
:1029C000FFF7D8FF084600BD01246407A04203DCDE
:1029D0006442A04200DD70472000704770B5FFF7E9
:1029E000C9FF8CE130B51821FFF731FF01143C4AD3
:1029F0005143C9140131491002B4420139484143DD
:102A0000521A3948002148A3CC43FFF790FF0844ED
:102A100004BC64E730B5FFF7A3FE010015D43349C9
:102A2000FFF7DEFE511001D30131401002B4014620
:102A30002E4B9B00C018C91A00223BA3D443FFF7BA
:102A400088FF114604BC130049E7FF22FBE730B5BD
:102A5000FFF7E0FF462B0ADC5B42462B06DC2448EE
:102A6000584308310911081A052238E7C043FF22EC
:102A700035E730B5FFF774FEFFF76EFEFFF770FE27
:102A800040014901D418641201340AD4D41A05DA79
:102A9000644220411C2C0CD3C0170AE021411C2C9D
:102AA00007D3002803DA1348C917484013E0C817B2
:102AB00011E00022002802DA404249420D4A0DA3EB
:102AC0000124FFF746FF10460A4A841802D2841AEE
:102AD00000D4A01A0138002201E7C046B49D6E134D
:102AE00015170000FF422E16CA159E2CB9C2930579
:102AF00030E4620151ED87640CCE583BF8755B1FE2
:102B00004CDDEA0FEC56FD07B8AAFF0354F5FF01B0
:102B1000ACFEFF00D4FF7F00FCFF3F00FCFF1F0066
:102B20000000100002000800ECA94F46EDA94F4636
:102B3000F45DB1201C89151044AC020845AC0208B4
:102B400064550004AC0A0002540100012C0080000E
:102B500004004000040020000000100000000800F5
:102B600003000800B94A514070B5C4174200120E64
:102B700051D0FF2A52D0CD174B001B0E51D0FF2B46
:102B800052D0B34E30403140013630433143604083
:102B90006940001B491B9D1AD41A0DD41E2C08DA5B
:102BA000203513000A00AA4021410BE00022080052
:102BB0000AE01300002207E01E2DF7DA203402009D
:102BC000A2402841401819D0C10F03D0C04352423F
:102BD00000D10130B619B04204D292184041013BF5
:102BE000B042FAD3400802D30130002A09D0FE2BAC
:102BF0000AD2C9070844DB05184470BD002AFCD07E
:102C0000E2E740084000F2E701DAC80770BD0802B9
:102C1000FF30C00570BD203A1219ACE71202224401
:102C2000A9E7203B5B19ACE71B022B44A9E7C04690
:102C300080B502464A40D20FD2079646400049006E
:102C4000020E3DD0FF2A3CD00B0E3CD0FF2B3BD0D8
:102C5000D718803F00020902400A490A42189446E8
:102C6000C209CB095A434843920C02D3002800D42E
:102C700001324302C00D520280186044C10D0ED1D2
:102C8000FE2F2BD25B0001D305D001300137FF05A9
:102C90003844704480BD013040084000F6E70137F9
:102CA000FE2F13D2400802D30130002B05D0FF19AC
:102CB0000137BF053844704480BD40084000F6E746
:102CC000103A1202C0E7103B1B02C1E712DA0137CB
:102CD0000ED10230C00D03280AD105E00ADA01370F
:102CE00006D10130C00D03D00120C005704480BD65
:102CF000704680BDFF20C005704480BD70B50124C2
:102D00006642E4054A02520A2243D309D0252D0621
:102D10002E666B66C60DF3B24002400A2043C90D11
:102D20004E40360AF6072D6FC9B2002930D0FF2970
:102D30002CD0002B39D0FF2B2AD05B1A7D33010A0F
:102D40006943090CC00314004C43041BA4126C43D8
:102D50002414490309190C0F08D105310C090FD3AC
:102D6000C90880025143401A0AD408E001330931EE
:102D70004C0905D3090940025143401A00D40134DB
:102D8000FE2B09D2D9056018801970BDFF2B0CD11C
:102D9000FF20C005304370BDFADA591C05D1610E21
:102DA00003D30120C005304370BD300070BDC04664
:102DB00010B441003AD20902490A0122D205891809
:102DC000C20D3AD0FF2A36D07D32521000D34900CE
:102DD0001AA44B0DE45CC8096043604300136043D0
:102DE00040132402241AAA3420004043C00B0B0ACB
:102DF0005843001360434015241A6343DB0B18004B
:102E000040434902081A40114443DB01E0131030EB
:102E10008011034406D31C46644164430904091B22
:102E200000D40133D205D01810BC7047090E04D06D
:102E3000C017C005F8E7C00DFBE7C00FC007F3E7F8
:102E4000F1DAC9BBB0A69E97918B86820000008004
:102E5000FFFF7F00F0B50124E407634001E0C046B6
:102E6000F0B50C0DCF0F661E3605891B640503D324
:102E7000C943404200D30131640D03D0661CF60AF9
:102E800007D0E41B00207F00791C89078912803C51
:102E900024031D0DDF0F6E1E36059B1B6D0503D32E
:102EA000DB43524200D301336D0D03D06E1CF60A92
:102EB00007D0ED1B00227F007B1C9B079B12803DEF
:102EC0002D032F1B661B58D4A446202E46DA20372C
:102ED0001400BC401D00BD40F24033412A4380181D
:102EE0005941CB0F05D0C943C04300226442504131
:102EF000514162464D0D28D10D0D07D100281FD03C
:102F0000241940414941013A0D0DF9D0640006D31E
:102F1000013000D30131002C01D140084000013ABA
:102F20000BD4941CE40A04D112051144DB071944A4
:102F3000F0BDD907204B194300E0D9070020F0BDB0
:102F40000029DDD1002CDBD1F0BD0132C6074008DD
:102F5000CD0728434908002EE1D0D9E73C2E29DAD5
:102F6000203E40371400BC4000D00124F2401443FE
:102F70001A00BB401C43D317ACE7AC46202F08DA3D
:102F800020360400B4400D00B540F84039412843D4
:102F9000A5E73C2F0CDA203F40360400B44000D0B7
:102FA0000124F84004430800B1400C43C117EAE78C
:102FB00010001900002494E70000F07FF0B50C0D1C
:102FC000661E3605891BE60A6405640D02D0651C81
:102FD000ED0A04D0002001210905803C2403A44609
:102FE0001C0D671E3F05DB1BE70A6405640D02D05C
:102FF000651CED0A04D0002201231B05803C24033C
:103000007740644497B484B296B27443070C7E430D
:10301000150C6F4380B26843361802D301200004B8
:103020003F183004350C00197D41844688B29AB2AD
:1030300050430C0C62431F0C7C438EB27E439219AA
:1030400002D301263604A4191604170C361867415A
:1030500001BC81B29AB25143040C62431B0C5C4325
:1030600080B25843121802D301200004241810041F
:10307000130C401863412D185E410020474106BCE7
:1030800088B293B258430C0C6343120C544389B278
:1030900051435B1802D301210904641819041A0C66
:1030A000091862416D1856410020474118BCF902C9
:1030B000720D1143F0026A0D1043ED020A0D03D1A7
:1030C0006D1940414941013B124E9B1B7600B342B2
:1030D0000ED26D0007D3013000267141664635439C
:1030E00001D1400840001B05C918E4072144F0BD88
:1030F0000BDA013306D1013004D101314F0D01D07B
:103100004908F2E7E1070020F0BD01363105002053
:10311000EBE70000FF030000F0B51C0D671E3F0544
:10312000DB1BE70A6405640D02D0661CF60A04D0B6
:10313000002201231B05803C2403D0252D060026F8
:10314000F6432E661E096E66CE0FF619B446490088
:103150004F0D02D07E1CF60A03D000200021403F14
:103160003F033E1BB600B444013F7F05C91B49081D
:103170002E6F013676089C02950D25437543ED139D
:103180007543AD1301356D10F603761B0CB4CC02FC
:10319000450D2C43A2B2B3B25A43270C7B43350CE6
:1031A0006F43A4B26C431B1902D3012424043F19BA
:1031B0001C041D0CA4187D4124196D41009A91B284
:1031C000ACB26143170C7C432B0C5F4392B25A4361
:1031D000A41802D301221204BF182204230C52188F
:1031E0007B41019C6C431B19520ED9010A434401D7
:1031F000A01A81B2B2B2514303145A43360C73433E
:1032000087B27743D617D21900277E4136049B191F
:103210001704160C7F185E417316ED18F301002693
:1032200080337541A90F06D16400690AE8055B0A7D
:10323000184309D22FE00422944480337541A90A2F
:10324000A8059B0A184326D3404149412404009A0B
:10325000019B0D005543641B4343E41A95B286B2AB
:103260007543170C7E43030C5F4392B25A43B61862
:1032700002D301221204BF183204330C52197B41CD
:1032800052429C41002C02D400220130514140089E
:10329000CA071043490802B06246D7079210594B3B
:1032A000D218594B9A4203D212058918C919F0BD98
:1032B0000020002A01DC3900F0BD01331905F5E7D3
:1032C00007DA002107E0C90FC907520D03D0C91260
:1032D00001E04E49090500207047C0464A00F2D27D
:1032E000520D013A484B9A42EAD2F0B51405091B37
:1032F000520801D3001849419B08D2181205944680
:1033000041A44A0CA25C0B09534353431B13534380
:103310005B131202D21A13005B435B0B4C0863432E
:10332000DB135343DB1501335B10D21A130CD21A93
:1033300013005B438902840D21438DB29EB2754315
:103340000F0C7E431B0C5F438CB25C43361902D3D7
:10335000012424043F193404330C64197B419D017A
:10336000A40E2C432034A5B25543241454432D0CF1
:103370006419A411D203121B95B28EB27543170CB7
:103380007E430C0C674393B26343F61802D30123C8
:103390001B04FF183304340C5B197C41DB186441B7
:1033A000DB18002363419EB276439DB21F0C7D4320
:1033B0007F436C04ED0BA4197D4106028F08361B78
:1033C000AF417D07F6086E41B4B295B26C43371435
:1033D0007D43120C5743B6B25643EA17AD19002687
:1033E00072411204BF182E042A0C36197A41083291
:1033F000521119D29D0A9C05D117101969416144D7
:10340000F0BD0000FD030000FE070000FF07000004
:10341000F8EBDFD6CDC5BEB8B2ADA8A4A09C9995F7
:10342000928F8D8A8885838152415D0ADC05D11790
:1034300014194D412B006343A6B27643A2B2270C68
:103440007A437F435104D20B89197A41D218D2189A
:1034500080054942904102D4002301345D41600857
:103460006908ED0728436144F0BDD0B511E0D0B53F
:10347000B34F4C00640D01D0BC4202D10020090DB5
:1034800009055C00640D01D0BC4202D100221B0D75
:103490001B0501264B400CD44B4000D57642994287
:1034A00003D1904203D801D3002600DC7642301EBF
:1034B000D0BD0B43DB1803431343F5D00029F6DAE4
:1034C000F4E744464D4656465F46F0B47047F0BCBC
:1034D000A046A946B246BB467047624618CA944603
:1034E0005A46002A20DB04E0624618CA94460029A6
:1034F0001ADAC01861415B463B415C46B440524613
:10350000FA40224344464D4662416B4190469946FB
:103510002B46B3403D41FC401C4352465B46A24112
:10352000AB4192469B467047C01AA1414B463B4176
:103530004C46B4404246FA40224354465D466241FE
:103540006B4192469B462B46B3403D41FC401C4399
:1035500042464B46A241AB419046994670470020F7
:1035600000217047002200B5203200F02AF8080040
:1035700000BD002200B5203200F030F8080000BD88
:10358000002100B500F004F81EE00021C315E6D4C8
:1035900010B58C46C3174000020E0AD0FF2A0CD08B
:1035A000511E7F3A0906401A5840C01A01110007FF
:1035B0001FE000200100030010BDD843D94310BD17
:1035C000002200B500F00CF8CA179A4200D100BDE5
:1035D000D8430121C907414000BD00220B15BED4CC
:1035E00010B5944600F0B8F81414013400DA002144
:1035F000CB176244343A0CD40C2A07DA0400914009
:10360000904052422032D440214310BDD843D94388
:1036100010BD203207D40C46944052422032114152
:10362000D040204310BD0800C917203203D45242B5
:103630002032104110BD1800190010BDC30FDB0768
:1036400041000A0E07D0FF2A08D009093D4A89180F
:103650001943400770471900002070473A49C918BC
:10366000FAE74A00520D394BD21A13DDFF2A1EDA4F
:10367000D205CB0FDB071A43C300400F0903490AE9
:10368000084310435B0001D301D001307047430869
:10369000FBD2704702D0C80FC00770470A0312134D
:1036A0000132F8D1420F072AF5D1012200E0FF22B2
:1036B000C80F00028018C005704700210A000021D1
:1036C00004E000210A00C11703E00022002305E006
:1036D0000022CB1758405940C01A994130B51C4CB4
:1036E000A21A002903D1010010D00020203A4C1565
:1036F00012D104D2013A001849414C0DFAD3154CAD
:10370000A24204D212058918DB07C91830BDD24382
:10371000520D00200021F5E703D4013A0018494179
:10372000FBD50B324405C00A4D052843C90A640085
:1037300003D0002460416141E1E7E0D34408F8E7A9
:10374000FF070000000000380000F07F8003000049
:1037500032040000FE0700000A0DCC0F531E1B05AB
:10376000C91A520503D3C943404200D30131520D57
:1037700003D0531CDB0A07D0121B00206400611C1D
:1037800089078912803A1203624BD21A70470232BB
:1037900025D40C2A1CDA1125AD1A0B002B41083256
:1037A00007350600EE40904091403143F0CC634332
:1037B0001A1500235A41554356435743BF02F4128A
:1037C000760576196741ED177F19801BB94170475F
:1037D0000C220020C917490001310905DBE7090265
:1037E000030E194300025342203208D40C00194141
:1037F0009440D84020430022504151417047080076
:10380000C917203B2032F1D500200021002270474B
:10381000F0B5FFF756FE00F01DF8844600F03EF8C4
:1038200003B4604600F058F80CBCFFF750FE74E497
:10383000F0B5FFF746FE00F00DF800F02FF806E0B7
:10384000F0B5FFF73EFE00F005F800F045F8FFF791
:103850003EFEF0BD00B5FFF77FFF31A4FFF797FFF5
:1038600000242D4D2D4ED20702D3F6436D42664102
:10387000520004D2A246A346A846B14603E0A046A1
:10388000A146AA46B3466FA4A44601271F26FFF708
:103890002BFE0137013E212FF9D100BD594684B2DC
:1038A0008DB26C43061475430B145E4382B25A43C7
:1038B000AD18EA1700D7D2431204B6182A042B0C0D
:1038C00012197341404649469D009B17920F2A43A7
:1038D000904199413E22FCE6494684B28DB26C4348
:1038E000061475430B145E4382B25A43AD18EA17AF
:1038F00000D7D2431204B6182A042B0C12197341B4
:10390000504659469D009B17920F2A4350415941FA
:103910003E22DEE6FF030000BB4DF09DC556F636A5
:103920007D5100001A61140085880A00FB211900EE
:10393000F0B5FFF7C6FD404D0C002C4001D0AC4265
:1039400002D1090D090500201C002C4001D0AC4219
:1039500002D11B0D1B0500220026ED02002B04D511
:1039600002266B40694000D476424F1904D5994233
:103970000CDD0136694003E0BB4207DA013E6B40D3
:10398000070010003A000F0019003B0040B4002A65
:103990000FD1002B0AD05C006415013409D14C0012
:1039A0006415013402D10139013B02E000200021FD
:1039B0002EE0FFF7B1FB3E22FFF703FE82468B4667
:1039C0000020002180460122920791461DA4A446B2
:1039D00001271F26FFF781FD0137013E212FF9D175
:1039E0004A4653460C3A01246407002752081B003C
:1039F00005D49341001979416408F7D104E053419B
:103A0000001BB9416408F1D1CE074910400830438A
:103A100040BC002E0AD0094C094D01D5E443ED43CA
:103A2000F60701D100196941001969413D22FFF7EC
:103A300050FEFFF74CFDF0BD0000F07F8D305A883E
:103A4000A8F64332694FBB610567AC1DB16E409665
:103A5000FCBAAD0F72DB0BABA66EF50739BD9FE567
:103A600076ABFE034B6297BA5BD5FF01D694DBDDE4
:103A7000AAFAFF005DEAEE5655FF7F006E77B7AAFF
:103A8000EAFF3F00BCBB5555FDFF1F00DEADAAAAF3
:103A9000FFFF0F006F5555F5FFFF0700ABAAAAFE09
:103AA000FFFF03005555D5FFFFFF0100ABAAFAFF4A
:103AB000FFFF00005555FFFFFF7F0000ABEAFFFF4F
:103AC000FF3F000055FDFFFFFF1F0000ABFFFFFFA2
:103AD000FF0F0000F5FFFFFFFF070000FFFFFFFFE4
:103AE000FF030000000000000002000000000000D2
:103AF0000001000000000000800000000000000045
:103B00004000000000000000200000000000000055
:103B1000100000000000000008000000000000008D
:103B2000040000000000000002000000000000008F
:103B300001000000000000800000000000000040C4
:103B400000000000F0B5FFF707FE54A4FFF71FFECA
:103B5000002904DA204C214D00196941013A04B4CE
:103B6000012752A6002201239B0730CEB446001B3A
:103B7000A9410BD47E4220361D003D411C00B440BB
:103B80001600FE40344362416B4101E00019694177
:103B900066460137212FE8D185B29EB275430714DE
:103BA0007E43190C4F4384B24C43F117361900245D
:103BB000614109047F183404310C64197941A40F60
:103BC0008800204389178018594104BC52423E3274
:103BD000FFF77FFDF0BD00006BDE73F4FD855C2C0C
:103BE000F0B54F0050D27F154ED001374FD0FFF7C0
:103BF000B3FD04B44902C20D1143400201272BA6B4
:103C0000B446002200237E4220360D003D410C00C8
:103C1000B4400600FE40344344414D41AE0F05D14F
:103C200020002900664630CE121BAB410824A44474
:103C30000137212FE7D18900891012184B4180BC30
:103C400017A413CC0137784379437C434F05C9123D
:103C5000CD17C0196941A702A415CD17C9196C4128
:103C6000DD17801859416C413E22CD17AC4208D077
:103C700000090E0730430909260731432411043A8D
:103C8000F3E7FFF726FDF0BD02490020F0BD024931
:103C90000020F0BD0000F0FF0000F07FAAB8000097
:103CA0006BDE1300A3EF0F0021170B00F34B98BF3F
:103CB000EC23F319D6104DCDE3FB470E7AB9BC8A3D
:103CC000DBC18907CC542C021846E103053083E799
:103CD000B029F8011E1FE0874505FE00249E41AC77
:103CE000A9807F008117624515E03F00E610ABA96F
:103CF00002F81F008858455500FE0F00C4AAA90A03
:103D000080FF070056455501E0FF0300ABA92A00DC
:103D1000F8FF010045550500FEFF0000AAAA00803B
:103D2000FF7F0000551500E0FF3F0000AB0200F8E8
:103D3000FF1F0000550000FEFF0F00000B0080FF7A
:103D4000FF0700000100E0FFFF0300000000F8FF94
:103D5000FF0100000000FEFFFF0000000080FFFFE9
:103D60007F00000000E0FFFF3F00000000F8FFFFC1
:103D70001F00000000FEFFFF0F00000080FFFFFF9C
:103D800007000000E0FFFFFF03000000F8FFFFFF57
:103D900001000000FEFFFFFF0000000000000080A7
:103DA000000000000000004000000000494E4445B3
:103DB0005820202048544D00494E464F5F5546320A
:103DC0005458540052617370626572727920506960
:103DD0000052503220426F6F74000601C00D105027
:103DE000EC0D10504D0400000A000000040100BE5C
:103DF0004F0000000C0000000E0000000100000059
:103E0000FFFF030003FFFF000002000000000000AE
:103E100003FFFF0200020008000902370002010050
:103E200080FA0904000002080650000705810240DC
:103E30000000070502024000000904010002FF0023
:103E4000000007050302400000070584024000004F
:103E500012011001000000408A2E0300000101023F
:103E6000030100BE180E1050500E1050EB3C904D48
:103E70005357494E342E310002080100020002005F
:103E800000F881000100010001000000FFFF0300B5
:103E9000000029000000005250492D5250322020CD
:103EA00020204641543136202020EBFE0000000146
:103EB00000100C00000800020880040880080000C0
:103EC0000100002004004004008000BE1C0000002F
:103ED00055230000C92400008D180000A90A000025
:103EE000C5180000FD170000C43D0000D13D0000D2
:103EF000B50E105055463220426F6F746C6F61647E
:103F000065722076322E300A4D6F64656C3A20520D
:103F10006173706265727279205069205250320A62
:103F2000426F6172642D49443A205250492D5250DB
:103F3000320A0403090400BE580E1050240E10501B
:103F4000000002022000000052504920FC015250A3
:103F500032FB0820F90632FD1602013C68746D6CD4
:103F60003E3C686561643E3C6D65746120687474B4
:103F7000702D65717569763D22726566726573682C
:103F80002220636F6E74656E743D22303B55524C37
:103F90003D27FC25733A2F2F726173706265727230
:103FA0007970692E636F6D2F6465766963652F5232
:103FB00050323F76657273696F6E3D616162626314
:103FC0006364646565666627222F3E3C2FFA6D6246
:103FD0006F64793E5265646972656374696E6720C7
:103FE000746F203CFD7F726566C6603EF1913C2F88
:103FF00061FD7162FC6B3C2FFBEB00BE00BE00BE9E
:00000001FF
